S00F0000506463546573742E737265635E
S214080000E8250720B5070800B1070800B10708006B
S214080010B1070800B1070800B10708000000000093
S214080020000000000000000000000000B107080003
S214080030B107080000000000B1070800B107080073
S214080040B1070800B1070800B1070800B1070800A3
S214080050B1070800B1070800B1070800B107080093
S214080060B1070800B10708000000000021060800D4
S21408007035060800490608005D060800000000006E
S21408008000000000B1070800B1070800B107080023
S214080090B1070800B1070800B1070800B107080053
S2140800A0B107080000000000B1070800B107080003
S2140800B0B1070800B1070800B1070800B107080033
S2140800C0B1070800B1070800B1070800B107080023
S2140800D0B1070800B1070800B1070800B107080013
S2140800E0B1070800B1070800B1070800B107080003
S2140800F0B107080010B5054C237833B9044B13B183
S2140801000448AFF300800123237010BD580507206C
S21408011000000000280C0800084B10B51BB1084961
S2140801200848AFF300800848036803B910BD074BBA
S214080130002BFBD0BDE81040184700BF00000000A9
S2140801405C050720280C0800280C080000000000A2
S2140801500B4619B1096881605B68C3601AB11368F9
S21408016083615368C36170470B4619B1096801601B
S2140801705B6843601AB1136803615368436170474C
S21408018021F0FE01C905C90D0162704710B40C01C3
S21408019094420FD91AE0416841F4002141601204E4
S2140801A002F4E0221A43026200201CE001201AE052
S2140801B0012018E0630803EBC202B2FBF4F2D3088E
S2140801C05C1E4FF6FE718C42E9D9EFE7C9004B0872
S2140801D003EBC202B2FBF1F2D3085C1E4FF6FE71C7
S2140801E08C42E5D8D7E710BC704700BF084BC0F86C
S2140801F0E430002343604362836288230360242339
S21408020003604FF4807303604FF400230360704765
S2140802100041535570B505460C4616460F4B984791
S21408022000220F4B1A609CB13246216828460D4BB7
S2140802309847024670B96168A36819432369194349
S214080240E3680B4306490B6069680B436B6002E082
S214080250012200E00122104670BD00BFED01080033
S214080260740507208D01080040230360704700BF0F
S21408027010230360704700BF436913F0020FFBD0DA
S214080280C1F30801C1610020704700BF0C4B9842BB
S2140802900FD003F5804398420DD003F5804398426B
S2140802A00BD003F58243074A90420CBF184600203D
S2140802B0704705487047054870470548704700BFAF
S2140802C00080094000400A400081094000C10940FA
S2140802D000010A4010B50E480E4B98473E210020F4
S2140802E00D4B98470D4CA0470028FCD00C4B984760
S2140802F00C4A0D4B9A620D4CA0470028FCD01020E3
S2140803000B4B98470B4B98470148024B984710BD34
S21408031000BD0105A5000720D90608002D0708001E
S2140803203D070800013F0D2000060E404D07080057
S214080330710608006108080010B54FF40042164B15
S2140803405A600B20154CA0470C20A0470D20A0474C
S2140803500E20A0474FF060513B20114CA0474FF0AD
S21408036060515520A0474FF060515620A0470D49D0
S2140803706820A0470C495C20A0470C4A4FF44071FF
S2140803800B480C4B98474FF000612B20A0474FF0C6
S21408039000612A20A04710BD501A0E405D070800CD
S2140803A05D04080079000028010000280100000804
S2140803B0000E0E40310508004264B1F1805F16D089
S2140803C004D8C1B1B1F1006F0AD013E0B1F1405FB3
S2140803D011D0B1F1605F0ED0B1F1205F0AD170473D
S2140803E0016F036F0B4023EA0203036702E0036F03
S2140803F01343036742607047416412F0010F14BF4D
S2140804004166016612F00A0F14BF0162416212F0DB
S214080410020F02D0C0F8801004E012F0080F18BFD0
S214080420C0F8841041610160704700BF10B4416491
S214080430019C0CB1416600E001660BB1016500E065
S21408044041650AB1016300E041630161016010BCC7
S214080450704700BFC06C7047806C704770B582B03C
S2140804600D46430903F5001303F207735C0201F017
S214080470F043B3F1205F30D006D8B3F1006F0AD04E
S214080480B3F1805F18D049E0B3F1405F30D0B3F1E4
S214080490605F2DD042E000F01F00012686403246FD
S2140804A04FF0006120461F4B984715F0010F14BF08
S2140804B066662666012032E000F01F0001268640A8
S2140804C032464FF080512046164B984715F0010FDC
S2140804D014BF66662666012021E000F01F0101268B
S2140804E02A4606FA01F120460F4B9847304616E092
S2140804F005F0605200F01F01012605EA0603009386
S214080500C5F38003B2F1605F14BF0022012206FA29
S21408051001F12046054CA047304600E0002002B016
S21408052070BD00BFB9030800F90308002D040800D1
S21408053070B582B005460E46144602F0F043B3F195
S214080540205F26D006D8B3F1006F0AD0B3F1805FDB
S21408055013D034E0B3F1405F1FD0B3F1605F1CD016
S2140805602DE00A464FF00061164B984714F0010F2D
S21408057014BF6E662E66012022E00A464FF08051B0
S214080580104B984714F0010F14BF6E662E660120B4
S21408059016E00D4B9847012012E004F0605204F074
S2140805A001030093C4F38003B2F1605F14BF002216
S2140805B0012231462846054CA047012000E00020CD
S2140805C002B070BDB9030800F90308002D0408003E
S2140805D02DE9F041044688460E4B984705462046C6
S2140805E00D4B9847054013D00C4C04F16006236861
S2140805F0434508D16168294205D0E36840469847D4
S214080600636825EA0305B44202D01034002DEED103
S214080610BDE8F0815504080059040800780507204D
S21408062008B50B210148024B984708BD000E0E403E
S214080630D105080008B50C210148024B984708BDAB
S21408064000100E40D105080008B50D210148024BE0
S214080650984708BD00120E40D105080008B50E21BF
S2140806600148024B984708BD00140E40D105080003
S214080670184A136B23F0700318431063936E13F035
S214080680080F03D009E0013B03D11EE04FF40063D6
S21408069010498A6E12F0080FF5D00E4A136B23F035
S2140806A0030343F002031363906E10F0080004D0AF
S2140806B000207047013B03D109E04FF40063054969
S2140806C08A6E12F0080FF5D0704701207047012097
S2140806D0704700BF00060E4038B111490B6A114A30
S2140806E01A40114B13430B6270470D48026A090201
S2140806F089B222F45C1323F0030343F45C1343F03B
S21408070001030B4303620246936E13F0010FFBD0FE
S214080710034A136A43F09B7343F4803313627047AB
S21408072000060E40FCFFC8FE02003701024B986E1A
S21408073000F48030704700BF00060E404FF00052AD
S214080740014B9A62704700BF00060E40024B986E37
S21408075000F00200704700BF00060E402C281ED886
S2140807601F280CD8114B9A6901238340934318D04D
S214080770012303FA00F00D4B18610020704720385B
S2140807800A4BD3F808210123834093430BD0012357
S21408079003FA00F0054BC3F800010020704701205B
S2140807A07047002070470020704700BF00060E40C4
S2140807B0FEE700BF08B51E4B1E4A9A4203D01E4BE2
S2140807C01B4A9A4204D31D4B1D4A9A420FD31AE07D
S2140807D017491C4B5B1A23F003030433154A1344CA
S2140807E052F8040B41F8040B9A42F9D1EBE7164B82
S2140807F0164AD21A22F003021A44043B002143F890
S214080800041B9342FBD1124B23F0604222F07F0276
S21408081010498A6003F16043B3F5801F03D28B68E2
S21408082043F000538B600C4B98470C4B9847FEE7F9
S21408083000000720280C080058050720E8050720B0
S21408084058050720570507205C050720EB050720F5
S2140808500000080000ED00E0A10A08009909080059
S2140808603E4B1B6B03F00303032B5FD8DFE803F054
S214080870020E2B2B3A4B5B6913F0800F14BF4FF414
S21408088000424FF4FA42374B1A604FE0334B1B6A6C
S21408089013F0807F03D0344A324B1A6046E0334A5E
S2140808A0304B1A602D4B1B6A03F07003102B02D0D6
S2140808B0202B04D03AE02E4A2A4B1A6036E02A4A01
S2140808C0284B1A6032E0254B1B6A13F0807F03D052
S2140808D0254A244B1A6012E0244A224B1A601F4B02
S2140808E01B6A03F07003102B02D0202B04D006E0FE
S2140808F01F4A1C4B1A6002E01B4A1A4B1A60174B19
S2140809001B6B03F00303022B0DD1144A936A926AF9
S2140809101448C3F30A41036801FB0333D2B2B3FB9E
S214080920F2F3036002E0134A0E4B1A600B4B1B6B84
S21408093003F07003702B07D10A4A13680E49A1FB0F
S21408094003135B0813607047044B1B6B0549C3F31E
S21408095002120B68D3400B60704700BF00060E40BB
S214080960101A0E402C010720001BB70000093D0096
S21408097000127A00001C4E0EABAAAAAA0146002254
S21408098038B9704700BF013BFCD10132914200D113
S214080990704740F2BA73F5E7F0B58DB0304B98471C
S2140809A0304B9847304B4FF4806159644FF40062DF
S2140809B05A6459605A601A6F22F480621A671A6F6E
S2140809C022F400621A67294E06AC35460FCD0FC4CE
S2140809D095E8030084E803001120254B9847254C2A
S2140809E0254A06A92046254B98472046244B984773
S2140809F02046244B9847B069059005AB039304231B
S214080A0004932046204B98470446002203A91F4B10
S214080A1098474FF4807120461D4DA847B38BADF814
S214080A20083002AB00930223019300226946204651
S214080A30184B984701212046A84742F21077164ED1
S214080A400C4D3846B0479DF808102846134CA0476A
S214080A503846B0479DF809102846A047F1E700BF7A
S214080A60D502080039030800000E0E40DC0B08000B
S214080A705D0708000080094000BD01051502080052
S214080A8071020800690208008D020800510108007A
S214080A9081010800690108007D090800790208003C
S214080AA070B50F4E0F4D761BB61018BF002405D034
S214080AB0013455F8043B9847A642F9D10A4E0B4D27
S214080AC000F0A0F8761BB61018BF002406D0013434
S214080AD055F8043B9847A642F9D170BD70BD00BFD3
S214080AE0100C0800100C0800180C0800100C080061
S214080AF0024B13B1024800F005B87047000000002A
S214080B00110B0800002301461A46184600F014B8D0
S214080B1038B5074D074C2C1BA41005D0013C55F8DA
S214080B20043D9847002CF9D1BDE8384000F074B869
S214080B30280C0800240C08002DE9F047254C06462A
S214080B4025688846D5F8484192469946C4B36068F1
S214080B501F2817DC411C76B104EB8003C3F888A075
S214080B60D4F88851012282401543022EC4F88851D1
S214080B70C3F808911ED0831C6160002044F82380C7
S214080B80BDE8F087144B03B34FF4C870AFF300808A
S214080B900446D0B1D5F84831002784E8880038469E
S214080BA0C5F848410121C4F88871C4F88C71002E34
S214080BB0E1D0D1E7D4F88C311A43C4F88C21DAE7AF
S214080BC005F5A674C5F84841C1E74FF0FF30BDE803
S214080BD0F08700BF000C08000000000000C20100FB
S214080BE0C000000000080000000000000000000030
S214080BF00000000061626364616200004300000058
S214080C0030010720F8B500BFF8BC08BC9E46704700
S214080C10F10A080019010800F8B500BFF8BC08BCBE
S20C080C209E467047F500080027
S214080C284FF48063204A136002F5007213601F4B66
S214080C381B6A13F0807F07D11D4A1C4B1A621A4696
S214080C48936E13F0010FFBD01A4A184B1A621A460D
S214080C58936E13F4803FFBD0144A136B23F00303F8
S214080C6843F001031363936E13F0080FFBD0124A80
S214080C780E4B9A621A46936E13F0020FFBD0112297
S214080C880A4B1A631A46936E13F0080FFBD0122203
S214080C98064B1A631A46936E13F0080FFBD0074ADA
S214080CA8074B1A60704700BF000A0E4000060E4041
S214080CB80908370009083701013F0D2000BD01055E
S214080CC82C0107201B4B984206D800231A4A1360A3
S214080CD802F5007213607047184B984207D84FF40D
S214080CE88073154A136002F5007213607047144B38
S214080CF8984207D84FF400730F4A136002F500723B
S214080D08136070470F4B984207D84FF440730A4A47
S214080D18136002F50072136070470B4B984294BF35
S214080D284FF480634FF4A063034A136002F5007219
S214080D3813607047BFEA2101000A0E407FF0FA02E6
S214080D48FF8FD003FFB3C4047F4A5D0500093D0042
S214080D58000000001C04072084040720EC04072071
S214080D68000000000000000000000000000000006E
S214080D78000000000000000000000000000000005E
S214080D8800000000FC0B080000000000000000003F
S214080D98000000000000000000000000000000003E
S214080DA8000000000000000000000000000000002E
S214080DB8000000000000000000000000000000001E
S214080DC8000000000000000000000000000000000E
S214080DD800000000000000000000000000000000FE
S214080DE800000000000000000000000000000000EE
S214080DF800000000000000000100000000000000DD
S214080E080E33CDAB34126DE6ECDE05000B000000A1
S214080E1800000000000000000000000000000000BD
S214080E2800000000000000000000000000000000AD
S214080E38000000000000000000000000000000009D
S214080E48000000000000000000000000000000008D
S8040807B537
